{
  "_format": "hh-sol-artifact-1",
  "contractName": "FundMe",
  "sourceName": "contracts/Fundme.sol",
  "abi": [
    {
      "inputs": [],
      "stateMutability": "nonpayable",
      "type": "constructor"
    },
    {
      "inputs": [
        {
          "internalType": "address",
          "name": "",
          "type": "address"
        }
      ],
      "name": "addressToAmountFunded",
      "outputs": [
        {
          "internalType": "uint256",
          "name": "",
          "type": "uint256"
        }
      ],
      "stateMutability": "view",
      "type": "function"
    },
    {
      "inputs": [
        {
          "internalType": "uint256",
          "name": "",
          "type": "uint256"
        }
      ],
      "name": "allFunders",
      "outputs": [
        {
          "internalType": "address",
          "name": "",
          "type": "address"
        }
      ],
      "stateMutability": "view",
      "type": "function"
    },
    {
      "inputs": [],
      "name": "fund",
      "outputs": [],
      "stateMutability": "payable",
      "type": "function"
    },
    {
      "inputs": [],
      "name": "getBalance",
      "outputs": [
        {
          "internalType": "uint256",
          "name": "",
          "type": "uint256"
        }
      ],
      "stateMutability": "view",
      "type": "function"
    },
    {
      "inputs": [
        {
          "internalType": "uint256",
          "name": "_ethAmount",
          "type": "uint256"
        }
      ],
      "name": "getConversionRate",
      "outputs": [
        {
          "internalType": "uint256",
          "name": "",
          "type": "uint256"
        }
      ],
      "stateMutability": "view",
      "type": "function"
    },
    {
      "inputs": [],
      "name": "getLatestPrice",
      "outputs": [
        {
          "internalType": "uint256",
          "name": "",
          "type": "uint256"
        }
      ],
      "stateMutability": "view",
      "type": "function"
    },
    {
      "inputs": [],
      "name": "minimumFund",
      "outputs": [
        {
          "internalType": "uint256",
          "name": "",
          "type": "uint256"
        }
      ],
      "stateMutability": "view",
      "type": "function"
    },
    {
      "inputs": [],
      "name": "owner",
      "outputs": [
        {
          "internalType": "address",
          "name": "",
          "type": "address"
        }
      ],
      "stateMutability": "view",
      "type": "function"
    },
    {
      "inputs": [],
      "name": "withdraw",
      "outputs": [],
      "stateMutability": "nonpayable",
      "type": "function"
    }
  ],
  "bytecode": "0x6080604052603260015534801561001557600080fd5b50336000806101000a81548173ffffffffffffffffffffffffffffffffffffffff021916908373ffffffffffffffffffffffffffffffffffffffff160217905550610c91806100656000396000f3fe6080604052600436106100865760003560e01c806366b30f061161005957806366b30f06146101475780636e5b6b28146101725780638da5cb5b146101af5780638e15f473146101da578063b60d42881461020557610086565b806307f1148e1461008b57806312065fe0146100c85780633ccfd60b146100f35780633e47d6f31461010a575b600080fd5b34801561009757600080fd5b506100b260048036038101906100ad9190610719565b61020f565b6040516100bf919061087d565b60405180910390f35b3480156100d457600080fd5b506100dd61024e565b6040516100ea91906108d8565b60405180910390f35b3480156100ff57600080fd5b50610108610256565b005b34801561011657600080fd5b50610131600480360381019061012c91906106f0565b6103fa565b60405161013e91906108d8565b60405180910390f35b34801561015357600080fd5b5061015c610412565b60405161016991906108d8565b60405180910390f35b34801561017e57600080fd5b5061019960048036038101906101949190610719565b610418565b6040516101a691906108d8565b60405180910390f35b3480156101bb57600080fd5b506101c4610452565b6040516101d1919061087d565b60405180910390f35b3480156101e657600080fd5b506101ef610476565b6040516101fc91906108d8565b60405180910390f35b61020d61052e565b005b6003818154811061021f57600080fd5b906000526020600020016000915054906101000a900473ffffffffffffffffffffffffffffffffffffffff1681565b600047905090565b60008054906101000a900473ffffffffffffffffffffffffffffffffffffffff1673ffffffffffffffffffffffffffffffffffffffff163373ffffffffffffffffffffffffffffffffffffffff16146102e4576040517f08c379a00000000000000000000000000000000000000000000000000000000081526004016102db90610898565b60405180910390fd5b3373ffffffffffffffffffffffffffffffffffffffff166108fc479081150290604051600060405180830381858888f1935050505015801561032a573d6000803e3d6000fd5b5060005b6003805490508110156103f7576000600260006003848154811061037b577f4e487b7100000000000000000000000000000000000000000000000000000000600052603260045260246000fd5b9060005260206000200160009054906101000a900473ffffffffffffffffffffffffffffffffffffffff1673ffffffffffffffffffffffffffffffffffffffff1673ffffffffffffffffffffffffffffffffffffffff1681526020019081526020016000208190555080806103ef90610b58565b91505061032e565b50565b60026020528060005260406000206000915090505481565b60015481565b600080610423610476565b90506000670de0b6b3a7640000848361043c9190610aa2565b610446919061095a565b90508092505050919050565b60008054906101000a900473ffffffffffffffffffffffffffffffffffffffff1681565b600080738a753747a1fa494ec906ce90e9f37563a8af630e905060008173ffffffffffffffffffffffffffffffffffffffff1663feaf968c6040518163ffffffff1660e01b815260040160a06040518083038186803b1580156104d857600080fd5b505afa1580156104ec573d6000803e3d6000fd5b505050506040513d601f19601f820116820180604052508101906105109190610742565b5050509150506402540be40081610527919061098b565b9250505090565b6000670de0b6b3a76400006001546105469190610aa2565b90508061055234610418565b1015610593576040517f08c379a000000000000000000000000000000000000000000000000000000000815260040161058a906108b8565b60405180910390fd5b34600260003373ffffffffffffffffffffffffffffffffffffffff1673ffffffffffffffffffffffffffffffffffffffff168152602001908152602001600020546105de9190610904565b600260003373ffffffffffffffffffffffffffffffffffffffff1673ffffffffffffffffffffffffffffffffffffffff168152602001908152602001600020819055506003339080600181540180825580915050600190039060005260206000200160009091909190916101000a81548173ffffffffffffffffffffffffffffffffffffffff021916908373ffffffffffffffffffffffffffffffffffffffff16021790555050565b60008135905061069681610bff565b92915050565b6000815190506106ab81610c16565b92915050565b6000813590506106c081610c2d565b92915050565b6000815190506106d581610c2d565b92915050565b6000815190506106ea81610c44565b92915050565b60006020828403121561070257600080fd5b600061071084828501610687565b91505092915050565b60006020828403121561072b57600080fd5b6000610739848285016106b1565b91505092915050565b600080600080600060a0868803121561075a57600080fd5b6000610768888289016106db565b95505060206107798882890161069c565b945050604061078a888289016106c6565b935050606061079b888289016106c6565b92505060806107ac888289016106db565b9150509295509295909350565b6107c281610afc565b82525050565b60006107d5602a836108f3565b91507f66756e6374696f6e2061636365737369626c6520627920636f6e74726163742060008301527f6f776e6572206f6e6c79000000000000000000000000000000000000000000006020830152604082019050919050565b600061083b601b836108f3565b91507f596f75206e65656420746f207370656e64206d6f7265204554482100000000006000830152602082019050919050565b61087781610b38565b82525050565b600060208201905061089260008301846107b9565b92915050565b600060208201905081810360008301526108b1816107c8565b9050919050565b600060208201905081810360008301526108d18161082e565b9050919050565b60006020820190506108ed600083018461086e565b92915050565b600082825260208201905092915050565b600061090f82610b38565b915061091a83610b38565b9250827fffffffffffffffffffffffffffffffffffffffffffffffffffffffffffffffff0382111561094f5761094e610ba1565b5b828201905092915050565b600061096582610b38565b915061097083610b38565b9250826109805761097f610bd0565b5b828204905092915050565b600061099682610b0e565b91506109a183610b0e565b9250827f7fffffffffffffffffffffffffffffffffffffffffffffffffffffffffffffff04821160008413600084131616156109e0576109df610ba1565b5b817f80000000000000000000000000000000000000000000000000000000000000000583126000841260008413161615610a1d57610a1c610ba1565b5b827f80000000000000000000000000000000000000000000000000000000000000000582126000841360008412161615610a5a57610a59610ba1565b5b827f7fffffffffffffffffffffffffffffffffffffffffffffffffffffffffffffff0582126000841260008412161615610a9757610a96610ba1565b5b828202905092915050565b6000610aad82610b38565b9150610ab883610b38565b9250817fffffffffffffffffffffffffffffffffffffffffffffffffffffffffffffffff0483118215151615610af157610af0610ba1565b5b828202905092915050565b6000610b0782610b18565b9050919050565b6000819050919050565b600073ffffffffffffffffffffffffffffffffffffffff82169050919050565b6000819050919050565b600069ffffffffffffffffffff82169050919050565b6000610b6382610b38565b91507fffffffffffffffffffffffffffffffffffffffffffffffffffffffffffffffff821415610b9657610b95610ba1565b5b600182019050919050565b7f4e487b7100000000000000000000000000000000000000000000000000000000600052601160045260246000fd5b7f4e487b7100000000000000000000000000000000000000000000000000000000600052601260045260246000fd5b610c0881610afc565b8114610c1357600080fd5b50565b610c1f81610b0e565b8114610c2a57600080fd5b50565b610c3681610b38565b8114610c4157600080fd5b50565b610c4d81610b42565b8114610c5857600080fd5b5056fea2646970667358221220cfc9acca26076bbc2f8447ddba470020f3be26c5e4f0ff241e91172f909d27d764736f6c63430008000033",
  "linkReferences": {},
  "deployedLinkReferences": {}
}